:100000000C942A000C9434000C9434000C943400AA
:100010000C9434000C9434000C9434000C94340090
:100020000C9434000C9434000C9434000C94340080
:100030000C9434000C9434000C9434000C94340070
:100040000C9434000C9434000C9434000C94340060
:100050000C94340011241FBECFE5D8E0DEBFCDBF25
:100060000E9407010C948D010C94000080E487B974
:1000700086E886B90895877097B1987F97B997B148
:10008000892B87B986B1806486B93699FECF84B151
:1000900095B10895613029F4E82FF0E08FEF818366
:1000A0000895E82FF0E011820895413069F4E82FB7
:1000B000F0E0218181E090E002C0880F991F6A95ED
:1000C000E2F7822B81830895E82FF0E0218181E01F
:1000D00090E002C0880F991F6A95E2F7809582230D
:1000E00081830895E82FF0E0828121E030E002C0B2
:1000F000220F331F6A95E2F7282B22830895E82FF9
:10010000F0E0828121E030E002C0220F331F6A95C7
:10011000E2F72095282322830895E82FF0E06283F8
:100120000895CF93C82F60E083E30E947F006C2F77
:1001300080E30E948D0061E083E30E94720000C0B2
:1001400000C061E083E30E947F0085E88A95F1F7B3
:100150000000CF91089561E080E30E944A0041E0F1
:1001600060E083E30E94550041E061E083E30E9488
:10017000550060E080E30E948D0061E083E30E940F
:100180007F008FEC97E00197F1F700C0000088E353
:100190000E9491008EE00E94910081E00E949100F7
:1001A0008FEC97E00197F1F700C0000086E00E9415
:1001B00091000895CF93C82F60E083E30E947200FE
:1001C0006C2F80E30E948D0061E083E30E94720047
:1001D00000C000C061E083E30E947F0085E88A954B
:1001E000F1F70000CF9108950F931F93CF938C01E7
:1001F000C0E003C00E94DA00CF5FF801EC0FF11DF0
:1002000080818111F7CFCF911F910F910895CF93E6
:10021000DF93CDB7DEB72C970FB6F894DEBF0FBED5
:10022000CDBF0E94AB000E94360080E00E943B00E0
:100230009C01220F331F220F331F820F931F6FEF7A
:1002400073E00E943901CB014AE050E0BE016F5FCC
:100250007F4F0E944D01CE0101960E94F4002FEFC6
:1002600084E39CE0215080409040E1F700C0000012
:10027000DCCFAA1BBB1B51E107C0AA1FBB1FA617DF
:10028000B70710F0A61BB70B881F991F5A95A9F73F
:1002900080959095BC01CD0108954532510520F41B
:1002A000423010F00C945801FB011082CB010895EC
:1002B000BB274A3031F4992322F4BDE29095819511
:1002C0009F4F0C946401BB27FB015527AA27880F79
:1002D000991FAA1FA41710F0A41B83955051B9F7BA
:1002E000A05DAA3308F0A95DA193009779F7B11139
:1002F000B1931192CB010C947D01DC01FC01672FBD
:1003000071917723E1F7329704C07C916D937083EC
:0E0310006291AE17BF07C8F30895F894FFCFAF
:00000001FF
